S026000045787465726E616C5F496E746572727570745F546573745F534C5F4D43552E737265634E
S1130000E8200020550F0000510F0000510F0000A0
S113001000000000000000000000000000000000DC
S1130020000000000000000000000000510F00006C
S11300300000000000000000510F0000510F0000FC
S1130040510F0000510F0000510F0000510F00002C
S1130050510F0000510F0000510F0000DD07000098
S1130060ED070000FD0700000D0800001D0800005A
S11300702D080000510F0000510F0000510F000027
S1130080510F0000510F0000510F0000510F0000EC
S1130090510F0000510F0000510F0000510F0000DC
S11300A0510F000010B5064C2378002B07D1054BE7
S11300B0002B02D0044800E000BF0123237010BDD0
S11300C00C0000200000000000120000084B10B5D6
S11300D0002B03D00749084800E000BF0748036825
S11300E0002B00D110BD064B002BFBD09847F9E73D
S11300F000000000100000200012000000120000A8
S113010000000000F0B5CE46474680B583B0050038
S11301100C00160029600B681C209B0704D503B053
S11301200CBC90469946F0BD0B681738DB07F6D433
S11301300800414B99469847404A116A831C01279D
S1130140B8469F403B000B43136201A9B37C0B707C
S11301500D30C3B21F001800394B98473800394B93
S11301609847B07C0021384B98472868C847070057
S11301703649374B9847BF00364BFD5000232422A5
S1130180AB540132AB54EB84737C2B721023236089
S11301902C683389EB8080236A46137000235370E4
S11301A06B4642469A7000236A46D3707069B569FB
S11301B0002835D06B46187002236A465370000C31
S11301C0C0B26946244B9847002D2ED06B461D7053
S11301D002236A4653702D0CE8B269461E4B9847B9
S11301E0F37C8022002B04D11C4B9B789B07DB0FF4
S11301F0DA012168337F9B070B4371680B43134378
S11302002360728980235B0013436360B3895B00BE
S1130210F28952041343327C1343636100207EE766
S1130220002120000E4B9847C4E7012120000C4B0D
S113023098470500CAE7C04635070000000400409F
S1130240F90D00006D0D000071050000650200004D
S113025071070000CC000020F10E000000200041D6
S1130260BD05000070B580009A4BC458256825234D
S1130270E35C2422A65C1E40AB7B9B0700D495E084
S1130280E38C9BB2228D93420DD03023E35C002B90
S113029009D13122A354E3842385B3070BD5236901
S11302A02000984707E0E38C9BB29A4203D03023A6
S11302B0E35C012B22D02A8A43231A4204D0102261
S11302C0123BE254B30624D4237A002B25D12B8A83
S11302D01B074AD501223023E254730738D4E38C38
S11302E09BB2002B38D125687B4B984700232B8287
S11302F08023DB026B60794B984718E0002331229E
S1130300A354E3842385F307D5D5E36820009847F5
S1130310D1E7236A20009847D6E725686E4B9847B3
S113032000232B828023DB026B606C4B984723688D
S11303309A7BD20701D501229A7302229A73246808
S1130340654B9847002323826360644B984770BDD4
S1130350636920009847C2E725685F4B98470023EC
S11303602B826B605D4B9847E1E700223023E25417
S113037033070ED4E38C9BB2002B0ED12568564B69
S1130380984700232B828023DB026B60534B9847F2
S1130390CDE7A36920009847ECE725684E4B9847C2
S11303A000232B826B604D4B9847C0E7AB7BDB0788
S11303B02ED50123AB7304332B732033E35C5B072B
S11303C005D42523E35C1B0701D402232B733123BB
S11303D0E35C1E2BBBD03123E35C102BB7D000238E
S11303E03122A354E3842385B30703D53023E35C8C
S11303F0002B09D0F307AAD53023E35C012BA6D147
S1130400E36820009847A2E72369200098479EE705
S1130410AB7B5B079BD5238D002B1DD03022A25CC8
S1130420012A12D0E38C9BB2002B00D18FE730233A
S1130430E35C002B43D0E36A5A1CE2621B78DBB214
S11304402B76238D013B238581E7E28C92B2934284
S1130450E8D22B8A5B07E5D500232385E384303378
S1130460E35C002B17D11C4B984700232B8280237D
S1130470DB026B60194B98476A6880239B02134325
S11304806B601E223123E254F30600D45FE7E36974
S1130490200098475BE7104B984700232B8280236A
S11304A0DB026B600D4B98476A6880239B02134301
S11304B06B6031230022E2542D3B2B7347E7E26A41
S11304C0531CE3622B7EDBB21370238D013B238527
S11304D03DE7C046CC00002071090000B1090000CE
S11304E070B5174A0021117080239B0353600023C9
S11304F051819181D181137453749374D37413779C
S1130500104B1381104B5361104B9361104D1149E3
S11305102800114B98472C682000104B98471F2344
S113052018401E3B83400E4A13602A68138A1BB28C
S1130530002BFBDB236802221343236070BDC046FB
S113054078000020102700000300080003000900C1
S1130550980000200010004205010000AD070000D3
S113056000E100E010B5014B984710BDE104000024
S113057010B582B004000E4B1B78002B07D0002965
S113058005D10B4B5B78834210D01D200CE001A9F0
S11305900C700C20074B98470C20074B9847044BD2
S11305A05C7001221A70002002B010BD0020FBE72D
S11305B028000020F90D00006D0D0000404B98420A
S11305C031D00AD93F4B98424DD03F4B98425AD034
S11305D03E4B984237D0002070473D4B98420CD098
S11305E03C4B9842F7D1012917D000295DD002294C
S11305F015D0032915D00020EEE7012907D00029E2
S113060051D0022905D0032905D00020E4E732485F
S1130610E2E73248E0E73248DEE73248DCE73248D6
S1130620DAE73248D8E7012907D000293FD0022968
S113063005D0032905D00020CEE72D48CCE72D486E
S1130640CAE72D48C8E7012907D0002931D002297B
S113065005D0032905D00020BEE72848BCE7284878
S1130660BAE72848B8E7012907D0002923D002298E
S113067005D0032905D00020AEE72348ACE7234882
S1130680AAE72348A8E7012907D0002915D00229A1
S113069005D0032905D000209EE71E489CE71E488C
S11306A09AE71E4898E71E4896E7032094E71D48FA
S11306B092E71D4890E71D488EE71D488CE7C04629
S11306C00010004200180042001C004200140042C6
S11306D000080042000C004203000500030006006D
S11306E0030007000300010003001E0003001F00B5
S11306F00300090003000A0003000B0003001100BB
S1130700030012000300130003000D0003000E0099
S113071003000F0003001700030018000300190072
S113072003000400030008000300100003000C0091
S11307300300160030B587B00B4B6A4632CB32C289
S113074032CB32C2009B83420BD001239A0069460C
S11307505258824206D00133062BF7D1002007B04D
S113076030BD0023D8B2FAE78811000070470000BA
S1130770F0B50A4B1B78002B0CD1094F094E0A4DDA
S11307800024DE515A1914600433182BF9D10122C4
S1130790024B1A708000024BC150F0BD2A000020A9
S11307A02C0000206D070000CC00002000B583B0B1
S11307B007236A4613700133537001339370013376
S11307C0D3700133137101335371034B98476B4654
S11307D0185603B000BDC0463507000010B5024BE3
S11307E01B680020984710BD2C00002010B5024B58
S11307F05B680120984710BD2C00002010B5024B07
S11308009B680220984710BD2C00002010B5024BB5
S1130810DB680320984710BD2C00002010B5024B64
S11308201B690420984710BD2C00002010B5024B12
S11308305B690520984710BD2C00002070B500208E
S1130840084B98470500084CFA218900A047074B3C
S1130850186007492800A047064B18600522064B7C
S11308601A6070BDE10C0000291000000000002097
S113087040420F000400002010E000E030B5084BB7
S11308801C68084A002580214902013807D3002C3E
S1130890FBD05460956013680B42FCD0F5E730BD83
S11308A00000002010E000E000B583B001AB80221E
S11308B01A700A785A704A789A708A78DA7019002D
S11308C0014B984703B000BDF10E000000B583B0A2
S11308D001A901234B7000228A700B700E20044B77
S11308E098478022D201034B9A6103B000BDC046F1
S11308F0A90800000044004100B583B001A9002309
S11309000B7001224A708B700F20024B984703B082
S113091000BDC046A908000010B500200D4B984743
S113092001380D4B98420DD80C4A50600C48036AAC
S11309301B021B0AC02109060B43036200239360B8
S113094007331360074B9847074B9847074B984763
S113095010BDC046E10C0000FFFFFF0010E000E006
S113096000ED00E03D080000CD080000F90800009B
S11309700C4B1B68002B06D1EFF31083002B07D020
S11309800022094B1A70074A136801331360704739
S113099072B6BFF35F8F0022044B1A700132024B10
S11309A01A70F0E7440000204800002008000020EE
S11309B0084B1A68013A1A601B68002B09D1064BD0
S11309C01B78002B05D00122044B1A70BFF35F8FF4
S11309D062B6704744000020480000200800002050
S11309E010B5072803D88000164B1B589F460020DB
S11309F027E0154BD86824E0144B1B6A9B059B0F1A
S1130A001348D8401DE0104B18691AE00E4B1B68C0
S1130A1000209B0715D50D491022CB681A42FCD043
S1130A20094B1B685B0701D40A480AE000200A4B03
S1130A309847054B9B681B041B0C584301E080201E
S1130A40000210BDA01100004C000020000800406E
S1130A5000127A00006CDC02150E000070B50C491F
S1130A600B6A047885784078012210408001402682
S1130A70B34303432A40D201802083431343032218
S1130A80224012020348034013430B6270BDC04668
S1130A9000080040FFFCFFFF072803D880001E4B1E
S1130AA01B589F46172036E01C4A136A02210B4349
S1130AB0136200202FE0194A936902210B439361CA
S1130AC0002028E0154A138A02210B4313820020D8
S1130AD021E0124A938A02210B43938200201AE0F8
S1130AE00F4B1A6802210A431A601B680D4A13400F
S1130AF00A4A938411001022CB681A42FCD0084A97
S1130B009168064BD96251689962126892B29A84CC
S1130B10002000E000207047C011000000080040E1
S1130B204C0000207FFF000030B585B0C222D20007
S1130B301A4B9A601A4A53681E218B43536001234F
S1130B406A4613700024174DE0B26946A847013481
S1130B501C2CF9D103A8002444700125857004706D
S1130B60114B98470620114B9847114B9847114B4E
S1130B701C725C729C72DC7201956B465C7006237D
S1130B806A46137014725472694600200A4B9847DF
S1130B9000200A4B984705B030BDC046000800400D
S1130BA000400041F90D00005D0A0000990A0000B0
S1130BB0C10B000000040040E50B00009D0C000088
S1130BC0064A936908210B4393610122044B1A706E
S1130BD019000B781342FCD17047C0460004004052
S1130BE0000C004070B5060004000D782D0205438A
S1130BF04B78002B02D08023DB021D434B7A002B61
S1130C0002D080231B031D434868012810D9431ECA
S1130C10184234D1022830D90223002201325B0069
S1130C209842FBD812023243140080235B031D4315
S1130C300B7A002B02D080239B031D43134A537865
S1130C405BB2002BFBDB124B9847124B1E700F4A12
S1130C5053785BB2002BFBDB0C4B9C601A0053787F
S1130C605BB2002BFBDB094A5368802149020B402D
S1130C701D435560084B984770BD0022D2E704021B
S1130C80344380239B021D43D2E7C046000C00403E
S1130C9071090000080C0040B109000010B50400FF
S1130CA00B4A53785BB2002BFBDB0A4B98470A4B89
S1130CB01C70074A53785BB2002BFBDB044A516873
S1130CC080235B020B435360044B984710BDC0461E
S1130CD0000C004071090000040C0040B109000040
S1130CE070B504001A4A53785BB2002BFBDB194B36
S1130CF09847194B1C70164A53785BB2002BFBDBE8
S1130D00134E7068C004C00E144B98470500124B74
S1130D101C707668F602F60F114B1C700C4A53785F
S1130D205BB2002BFBDB0A4B9C682402240C0D4BAA
S1130D309847002E07D1012C07D9210028000A4B1F
S1130D409847050001E00134E540280070BDC04625
S1130D50000C004071090000040C0040E10900008F
S1130D60080C0040B10900002910000010B504006F
S1130D70064B9847064B1C70064A53888021C901CC
S1130D800B435380044B984710BDC04671090000C3
S1130D90020C0040000C0040B109000010B5040032
S1130DA00F4B98470F4B1C700F4A53881B05180FA5
S1130DB053880E490B40538053880D490B40538090
S1130DC011008022D2014B881342FCD106494A8883
S1130DD003020648024013434B80064B984710BD5C
S1130DE071090000020C0040000C0040FFF0FFFFFE
S1130DF0FFBFFFFFB109000010B50C7824020443C3
S1130E00024B9847A4B2024B5C8010BD9D0D0000BC
S1130E10000C004010B50400064B9847064B1C70AC
S1130E20064B5C882405240F054B98472000054B8E
S1130E30984710BD71090000020C0040000C0040EE
S1130E40B1090000E10C000030B5D378002B35D196
S1130E501378802B29D01B06802464022343547802
S1130E600225AC4306D19478002C20D18024A4021E
S1130E70234341605478013C012C1CD90D042D0CF2
S1130E80A024E4052C431C4384620D0CD0242406C6
S1130E902C431C438462D478002C22D15B031CD5E0
S1130EA09378012B1ED0416117E00023D7E7C024BB
S1130EB0E4022343DDE70D4C2340DFE741600C04EB
S1130EC0240CA023DB05234383620C0CD0231B06D4
S1130ED023438362D378002B03D15378013B012B46
S1130EE002D930BD8161F8E78160FAE7FFFFFBFFBB
S1130EF010B50A00C1090023002904D14309DB010C
S1130F0005498C4663441F24204001218140180078
S1130F10024B984710BDC04600440041490E0000F2
S1130F207047000010B5054B9847054B9847054B93
S1130F309847054B9847054B984710BD290B00006F
S1130F4019090000210F0000210F0000210F0000EB
S1130F50FEE7000010B51A4A1A4B9A4211D01A0043
S1130F60194B9A420DD2194A03339B1A9B08013339
S1130F709B000022134812498C58845004329A4230
S1130F80FAD1134A134B9A420AD2D34311495B183C
S1130F9003218B4304339B18002102C29342FCD1EA
S1130FA00D4AFF210D4B8B4393600D4A53687F39E3
S1130FB00B4353600B4B98470B4B9847FEE7C046D7
S1130FC000120000000000200C000020040000209B
S1130FD00C000020E400002000ED00E00000000010
S1130FE00040004141110000ED0F000070B50A4BB4
S1130FF098470A4B98470A4C80252D02094E04E075
S11310008023DB01E3616420B047236A2B42F7D0DD
S11310108023DB01A361F8E7250F000065050000CC
S1131020004400417D080000002243088B4274D331
S113103003098B425FD3030A8B4244D3030B8B42D5
S113104028D3030C8B420DD3FF22090212BA030CDE
S11310508B4202D31212090265D0030B8B4219D3BF
S113106000E0090AC30B8B4201D3CB03C01A5241DF
S1131070830B8B4201D38B03C01A5241430B8B4227
S113108001D34B03C01A5241030B8B4201D30B0310
S1131090C01A5241C30A8B4201D3CB02C01A524137
S11310A0830A8B4201D38B02C01A5241430A8B42FA
S11310B001D34B02C01A5241030A8B4201D30B02E3
S11310C0C01A5241CDD2C3098B4201D3CB01C01AFD
S11310D0524183098B4201D38B01C01A5241430907
S11310E08B4201D34B01C01A524103098B4201D3F5
S11310F00B01C01A5241C3088B4201D3CB00C01A62
S1131100524183088B4201D38B00C01A52414308D9
S11311108B4201D34B00C01A5241411A00D20146FE
S1131120524110467047FFE701B5002000F006F871
S113113002BDC0460029F7D076E770477047C04625
S113114070B500260C4D0D4C641BA410A64209D1A9
S1131150002600F045F80A4D0A4C641BA410A64270
S113116005D170BDB300EB5898470136EEE7B300E4
S1131170EB5898470136F2E7EC110000EC1100003F
S1131180EC110000F011000000080042000C0042C5
S1131190001000420014004200180042001C0042EB
S11311A0F2090000EE090000EE0900003E0A00000A
S11311B03E0A0000060A0000F80900000C0A0000BC
S11311C0C40A0000A40A0000A40A0000140B0000D2
S11311D0B60A0000D20A0000A80A0000E00A0000D3
S11311E0F8B5C046F8BC08BC9E467047CD00000068
S11311F0F8B5C046F8BC08BC9E467047A500000080
S10F1200401F0000080000000100000076
S9030F5598
