:10000000602000204D080000490800004908000059
:1000100000000000000000000000000000000000E0
:10002000000000000000000000000000490800007F
:10003000000000000000000049080000490800001E
:10004000490800004908000049080000490800006C
:1000500049080000490800004908000005010000A7
:1000600015010000250100003501000045010000D8
:100070005501000049080000490800004908000037
:10008000490800004908000049080000490800002C
:10009000490800004908000049080000490800001C
:1000A0004908000010B5064C2378002B07D1054BFA
:1000B000002B02D0044800E000BF0123237010BDD4
:1000C0000C00002000000000D80A0000084B10B50A
:1000D000002B03D00749084800E000BF0748036829
:1000E000002B00D110BD064B002BFBD09847F9E741
:1000F0000000000010000020D80A0000D80A00000C
:100100000000000010B5024B1B680020984710BD8E
:100110002800002010B5024B5B680120984710BDF5
:100120002800002010B5024B9B680220984710BDA4
:100130002800002010B5024BDB680320984710BD53
:100140002800002010B5024B1B690420984710BD01
:100150002800002010B5024B5B690520984710BDB0
:100160002800002070B50020084B98470500084C77
:10017000FA218900A047074B186007492800A047CB
:10018000064B18600522064B1A6070BD0906000078
:10019000190900000000002040420F000400002068
:1001A00010E000E030B5084B1C68084A00258021AB
:1001B0004902013807D3002CFBD0546095601368C6
:1001C0000B42FCD0F5E730BD0000002010E000E05D
:1001D00000B583B001AB80221A700A785A704A7851
:1001E0009A708A78DA701900014B984703B000BD05
:1001F000E907000000B583B001A901234B7000227C
:100200008A700B700E20044B98478022D201034B5A
:100210009A6103B000BDC046D10100000044004116
:1002200000B583B001A900230B7001224A708B70C6
:100230000F20024B984703B000BDC046D10100001B
:1002400010B500200D4B984701380D4B98420DD842
:100250000C4A50600C48036A1B021B0AC0210906A5
:100260000B4303620023936007331360074B9847E7
:10027000074B9847074B984710BDC046090600003A
:10028000FFFFFF0010E000E000ED00E0650100006E
:10029000F5010000210200000C4B1B68002B06D169
:1002A000EFF31083002B07D00022094B1A70074A86
:1002B000136801331360704772B6BFF35F8F00227B
:1002C000044B1A700132024B1A70F0E74000002014
:1002D0004400002008000020084B1A68013A1A6008
:1002E0001B68002B09D1064B1B78002B05D001227F
:1002F000044B1A70BFF35F8F62B670474000002056
:10030000440000200800002010B5072803D8800012
:10031000164B1B589F46002027E0154BD86824E059
:10032000144B1B6A9B059B0F1348D8401DE0104BD4
:1003300018691AE00E4B1B6800209B0715D50D4964
:100340001022CB681A42FCD0094B1B685B0701D412
:100350000A480AE000200A4B9847054B9B681B049B
:100360001B0C584301E08020000210BD780A0000F9
:10037000480000200008004000127A00006CDC02F7
:100380000D07000070B50C490B6A04788578407839
:100390000122104080014026B34303432A40D2018A
:1003A0008020834313430322224012020348034068
:1003B00013430B6270BDC04600080040FFFCFFFF06
:1003C000072803D880001E4B1B589F46172036E095
:1003D0001C4A136A02210B43136200202FE0194AC2
:1003E000936902210B439361002028E0154A138A88
:1003F00002210B431382002021E0124A938A02213A
:100400000B43938200201AE00F4B1A6802210A4323
:100410001A601B680D4A13400A4A93841100102287
:10042000CB681A42FCD0084A9168064BD9625168E1
:100430009962126892B29A84002000E0002070470E
:10044000980A000000080040480000207FFF0000DC
:1004500030B585B0C222D2001A4B9A601A4A53684E
:100460001E218B43536001236A4613700024174DED
:10047000E0B26946A84701341C2CF9D103A8002436
:100480004470012585700470114B98470620114B6C
:100490009847114B9847114B1C725C729C72DC722E
:1004A00001956B465C7006236A4613701472547291
:1004B000694600200A4B984700200A4B984705B030
:1004C00030BDC0460008004000400041F106000079
:1004D00085030000C1030000E9040000000400409F
:1004E0000D050000C5050000064A936908210B436D
:1004F00093610122044B1A7019000B781342FCD14E
:100500007047C04600040040000C004070B5060073
:1005100004000D782D0205434B78002B02D0802378
:10052000DB021D434B7A002B02D080231B031D43AB
:100530004868012810D9431E184234D1022830D906
:100540000223002201325B009842FBD812023243A0
:10055000140080235B031D430B7A002B02D0802301
:100560009B031D43134A53785BB2002BFBDB124BFA
:100570009847124B1E700F4A53785BB2002BFBDB7F
:100580000C4B9C601A0053785BB2002BFBDB094AD2
:100590005368802149020B401D435560084B984722
:1005A00070BD0022D2E70402344380239B021D4326
:1005B000D2E7C046000C004099020000080C004041
:1005C000D902000010B504000B4A53785BB2002B2F
:1005D000FBDB0A4B98470A4B1C70074A53785BB207
:1005E000002BFBDB044A516880235B020B43536002
:1005F000044B984710BDC046000C00409902000013
:10060000040C0040D902000070B504001A4A537867
:100610005BB2002BFBDB194B9847194B1C70164A39
:1006200053785BB2002BFBDB134E7068C004C00E26
:10063000144B98470500124B1C707668F602F60FB3
:10064000114B1C700C4A53785BB2002BFBDB0A4B3E
:100650009C682402240C0D4B9847002E07D1012CD6
:1006600007D9210028000A4B9847050001E0013412
:10067000E540280070BDC046000C00409902000013
:10068000040C004009030000080C0040D9020000DF
:100690001909000010B504000F4B98470F4B1C7050
:1006A0000F4A53881B05180F53880E490B4053807F
:1006B00053880D490B40538011008022D2014B8892
:1006C0001342FCD106494A880302064802401343FC
:1006D0004B80064B984710BD99020000020C004069
:1006E000000C0040FFF0FFFFFFBFFFFFD90200003A
:1006F00010B50C7824020443024B9847A4B2024B75
:100700005C8010BD95060000000C004010B5040090
:10071000064B9847064B1C70064B5C882405240F3B
:10072000054B98472000054B984710BD99020000E3
:10073000020C0040000C0040D90200000906000035
:1007400030B5D378002B35D11378802B29D01B06F8
:1007500080246402234354780225AC4306D1947864
:10076000002C20D18024A402234341605478013C12
:10077000012C1CD90D042D0CA024E4052C431C4392
:1007800084620D0CD02424062C431C438462D4784C
:10079000002C22D15B031CD59378012B1ED0416124
:1007A00017E00023D7E7C024E4022343DDE70D4C24
:1007B0002340DFE741600C04240CA023DB05234326
:1007C00083620C0CD0231B0623438362D378002B57
:1007D00003D15378013B012B02D930BD8161F8E789
:1007E0008160FAE7FFFFFBFF10B50A00C109002393
:1007F000002904D14309DB0105498C4663441F24C9
:100800002040012181401800024B984710BDC0468E
:1008100000440041410700007047000010B5054B3F
:100820009847054B9847054B9847054B9847054B0C
:10083000984710BD51040000410200001908000053
:100840001908000019080000FEE7000010B51A4A58
:100850001A4B9A4211D01A00194B9A420DD2194ADA
:1008600003339B1A9B0801339B0000221348124953
:100870008C58845004329A42FAD1134A134B9A424C
:100880000AD2D34311495B1803218B4304339B18CD
:10089000002102C29342FCD10D4AFF210D4B8B4334
:1008A00093600D4A53687F390B4353600B4B984755
:1008B0000B4B9847FEE7C046D80A00000000002016
:1008C0000C000020040000200C0000205C00002030
:1008D00000ED00E00000000000400041310A00008F
:1008E000E508000070B5094B9847094C80252D029A
:1008F000084E04E08023DB01E3616420B047236AF3
:100900002B42F7D08023DB01A361F8E71D0800002C
:1009100000440041A5010000002243088B4274D32B
:1009200003098B425FD3030A8B4244D3030B8B42F0
:1009300028D3030C8B420DD3FF22090212BA030CF9
:100940008B4202D31212090265D0030B8B4219D3DA
:1009500000E0090AC30B8B4201D3CB03C01A5241FA
:10096000830B8B4201D38B03C01A5241430B8B4242
:1009700001D34B03C01A5241030B8B4201D30B032B
:10098000C01A5241C30A8B4201D3CB02C01A524152
:10099000830A8B4201D38B02C01A5241430A8B4215
:1009A00001D34B02C01A5241030A8B4201D30B02FE
:1009B000C01A5241CDD2C3098B4201D3CB01C01A18
:1009C000524183098B4201D38B01C01A5241430922
:1009D0008B4201D34B01C01A524103098B4201D310
:1009E0000B01C01A5241C3088B4201D3CB00C01A7D
:1009F000524183088B4201D38B00C01A52414308F5
:100A00008B4201D34B00C01A5241411A00D2014619
:100A1000524110467047FFE701B5002000F006F88C
:100A200002BDC0460029F7D076E770477047C04640
:100A300070B500260C4D0D4C641BA410A64209D1C4
:100A4000002600F039F80A4D0A4C641BA410A64297
:100A500005D170BDB300EB5898470136EEE7B300FF
:100A6000EB5898470136F2E7C40A0000C40A0000B8
:100A7000C40A0000C80A00001A03000016030000A0
:100A80001603000066030000660300002E0300004A
:100A90002003000034030000EC030000CC0300003E
:100AA000CC0300003C040000DE030000FA03000059
:100AB000D003000008040000F8B5C046F8BC08BC2C
:100AC0009E467047CD000000F8B5C046F8BC08BC93
:080AD0009E467047A5000000DE
:0C0AD800401F00000800000001000000AA
:040000030000084DA4
:00000001FF
