S026000045787465726E616C5F496E746572727570745F546573745F534C5F4D43552E737265634E
S1130000E82000208D0F0000890F0000890F0000F8
S113001000000000000000000000000000000000DC
S1130020000000000000000000000000890F000034
S11300300000000000000000890F00000905000016
S1130040890F0000890F0000890F0000890F00004C
S1130050890F0000890F0000890F00008908000043
S113006099080000A9080000B9080000C9080000A8
S1130070D9080000890F0000890F0000890F0000D3
S1130080890F0000890F0000890F0000890F00000C
S1130090890F0000890F0000890F0000890F0000FC
S11300A0890F000010B5064C2378002B07D1054BAF
S11300B0002B02D0044800E000BF0123237010BDD0
S11300C00C00002000000000E0110000084B10B5F7
S11300D0002B03D00749084800E000BF0748036825
S11300E0002B00D110BD064B002BFBD09847F9E73D
S11300F00000000010000020E0110000E0110000EA
S113010000000000F0B5040021600B6885B00E000B
S113011017001C209B0700D584E001220B681738C8
S11301201A40019200D07DE008003F4B984701251A
S1130130831C9D402B003D4A0D30116AC5B20B4310
S11301401362BB7C02AA137011002800384B984735
S11301502800384B98470199374BB87C984720685A
S1130160314B9847354B3649050098476A46354B1D
S1130170AD001279EC50631DDA776A461279A31D3B
S1130180DA776B469B88E3847B7C2372102333608D
S11301903B892668E380802303AC237001237869BC
S11301A06270A370E270BD69002803D10100264B80
S11301B03000984702232070000C6370C0B2210005
S11301C0224B9847002D04D1012130001E4B984743
S11301D00500022325702D0C6370E8B21B4B21002F
S11301E09847FB7C8022002B06D1194B7E3A9B78E2
S11301F013405A1E9341DA013B7F31689B070B433E
S1130200796800200B431343336080237A895B00B1
S113021013437360BB89FA895B00520413433A7C2D
S11302201343736105B0F0BDF10700000004004002
S1130230590E0000D10D00005106000025080000F1
S1130240C9020000D0000020950600002D0F000018
S11302500020004170B5074B04680D009847002347
S113026023829D4203D06360034B984770BD802373
S1130270DB02F8E7110A0000450A0000931C9B000A
S1130280C3185960012393400530C17F0B43DBB28F
S1130290C377704710B5028D03000520002A0CD1E6
S11302A04C68DC620C881C850988D98419003131BA
S11302B00870072110001B68597310BD10B5014B5D
S11302C0984710BD95020000F7B5754B8000C458DF
S11302D0611DA31DDA7FCE7F256816400222A97B0B
S11302E011425ED0E38C218D8B4240D02300303309
S11302F01B78DBB2002B3AD1210031310B70E3843F
S11303002385164202D023692000984743232A8A72
S11303101A4208D02300102231331A70B30602D5D2
S1130320236A20009847237A5E4F0021002B10D1C6
S1130330082221002B8A303113402BD001230B706B
S1130340730702D5636920009847E18C89B20029BC
S113035025D12000B84723689A7BD20701D5012212
S11303609A73022201219A732000B847F7BDE38CE7
S11303709942CBD0230030331B78DBB2012BC5D19B
S11303802100002231310A70E28422851E42BDD050
S1130390E368B9E70B701642D7D0A369D3E701210C
S11303A0D7E70121A87B084229D0A9730431297316
S11303B0D97F490703D4DB7F1B0700D42A732200AB
S11303C0313213781E2BD1D01378102BCED00023CA
S11303D01370E3842385B30708D5230030331B78D7
S11303E0002B03D1236920009847BFE7F307BDD54D
S11303F0230030331B78012BB8D1E368F3E70422E0
S1130400AB7B1342B2D02300218D3033002908D0B6
S1130410187801282CD1E08C814229D2298A1142F2
S113042026D000272785E78419782300C9B2313301
S113043001931C4BB9420ED12000984780226B686F
S1130440920213436B601E23019A1370F30600D4C7
S11304508CE7E369C7E739002000984780226B687E
S1130460920213436B60019B1F7004232B737DE77F
S1130470E28C002A00D179E71A78E36A002A08D1CD
S11304805A1CE2622A7ED2B21A70238D013B238564
S11304906CE75A1CE2621B78DBB22B76F5E7C046A8
S11304A0D000002055020000052310B503490B803D
S11304B0034B4B60034B984710BDC0466C000020B3
S11304C06000002095020000052310B503490B804D
S11304D0034B4B60034B984710BDC0466C00002093
S11304E074000020BD0200008022024BD201DA61B8
S11304F07047C046004400418022024BD201DA61B9
S11305007047C04600440041704700008021164AED
S1130510890370B5002351600121144D1370538178
S1130520D381137453749374D374536193611377A5
S113053049421A33118193810D490E4B2800984783
S11305402C680D4B200098471F2318401E3B834006
S11305500A4A13602A68138A1BB2002BFBDB0223AE
S113056022681343236070BD7C0000209C0000209F
S113057000100042050100005D08000000E100E0F9
S1130580F8B5134D134F280002221349B84704232A
S11305900226AC1DE27F28001343E3772B68032275
S11305A05E730E49B8470823E27F28001343E377BC
S11305B02B6800225E730A49B8470122E37F2800B2
S11305C013430849E377B847E37F1E43E677F8BD52
S11305D09C0000207D020000A9040000C904000062
S11305E0F9040000E9040000124B10B500209847FC
S11305F0114B013898420DD8C021104A09065060A9
S11306000F48036A1B021B0A0B4303620023936017
S1130610073313600B4B98470B4B9847A1220B4BA6
S11306201A7001325A7001329A700132DA70013252
S11306301A7110BD490D0000FFFFFF0010E000E03B
S113064000ED00E00D0500008105000060000020C1
S113065037B50D4C05002378002B01D000290CD0B0
S113066001A90C20094B0D7098470C20084B9847A2
S113067001230020657023703EBD63780800AB42FF
S1130680FAD01D20F8E7C04628000020590E0000CB
S1130690D10D0000394A030000B50800934233D05D
S11306A007D8374A934214D0364A93421FD00023C6
S11306B017E0354A93423AD0344A934244D0344AFC
S11306C09342F4D1002303290BD800F0B3FC502A41
S11306D02C2E0023032904D800F0ACFC43020507A8
S11306E02C4B180000BD2C4BFBE72C4BF9E70023E7
S11306F00329F6D800F09EFC37020406284BF0E7E5
S1130700284BEEE7284BECE700230329E9D800F057
S113071091FC2C020406254BE3E7254BE1E7254B2E
S1130720DFE7254BDDE7254BDBE7254BD9E7002346
S11307300329D6D800F07EFC1D020406214BD0E725
S1130740214BCEE7214BCCE700230329C9D800F085
S113075071FC120204061E4BC3E71E4BC1E71E4B7D
S1130760BFE71E4BBDE70323BBE71D4BB9E71D4B9A
S1130770B7E71D4BB5E71D4BB3E7C0460010004279
S113078000080042000C004200180042001C004215
S113079000140042030005000300060003000700E4
S11307A00300010003001E0003001F0003000900F2
S11307B003000A0003000B000300110003001200F1
S11307C00300130003000D0003000E0003000F00DC
S11307D003001700030018000300190003000400BD
S11307E0030008000300100003000C0003001600BF
S11307F070B586B06946094B6A4670CB70C170CB40
S113080070C1002399005158814202D1D8B206B078
S113081070BD0133062BF5D10020F8E7A8110000C4
S113082070470000F0B5094C094A2378002B09D120
S11308301E00084F084DD750EE500433182BFAD140
S1130840173B237080001150F0BDC0462A000020E1
S11308502C00002021080000D000002007B5072349
S11308606A46137001335370013393700133D370AC
S11308700133137101335371024B98476B46185679
S11308800EBDC046F107000010B5024B00201B68E6
S1130890984710BD2C00002010B5024B01205B6866
S11308A0984710BD2C00002010B5024B02209B6815
S11308B0984710BD2C00002010B5024B0320DB68C4
S11308C0984710BD2C00002010B5024B04201B6972
S11308D0984710BD2C00002010B5024B05205B6921
S11308E0984710BD2C00002070B5094B0020984794
S11308F0FA21084C89000500A047074B07491860F6
S11309002800A0470522064B1860064B1A6070BDEC
S1130910490D0000491000000000002040420F0073
S11309200400002010E000E030B580240021074BD3
S113093064021A68064B013800D230BD002AFAD08E
S11309405A6099601D682542FCD0F4E7000000203D
S113095010E000E007B5802201AB1A700A785A70E3
S11309604A789A708A781900DA70014B984707BD63
S11309702D0F0000012307B5002201A94B700B7055
S11309800E20044B8A7098478022034BD2019A614F
S113099007BDC0465509000000440041002307B5C7
S11309A0012201A90B708B700F20024B4A709847EB
S11309B007BDC046550900000E4B10B500209847EE
S11309C00D4B013898420DD8C0210C4A09065060DD
S11309D00B48036A1B021B0A0B4303620023936048
S11309E007331360074B9847074B9847074B9847C3
S11309F010BDC046490D0000FFFFFF0010E000E0FD
S1130A0000ED00E0E9080000750900009D09000000
S1130A10094B196800290BD1EFF31080074A00280D
S1130A2005D172B6BFF35F8F0549087001211170BB
S1130A301A6801321A607047440000204800002000
S1130A4008000020084B1A68013A1A601B68002B42
S1130A5009D1064B1B78002B05D00122044B1A70D8
S1130A60BFF35F8F62B67047440000204800002047
S1130A700800002010B5072805D800F0DBFA0604AA
S1130A80042727100913002010BD134BD868FBE777
S1130A90124B13481B6A9B059B0FD840F4E70E4B7F
S1130AA01869F1E70C4C002023689B07ECD5102350
S1130AB00A49CA681A42FCD023685B0709D5094B66
S1130AC000209847A3689BB25843DDE780200002CA
S1130AD0DAE70548D8E7C0464C000020000800408B
S1130AE000127A00750E0000006CDC0270B5847888
S1130AF0027845780120402605402040802408499A
S1130B00AD010B6AC001B3432B43A343034303204A
S1130B10024004481202034013430B6270BDC046F6
S1130B2000080040FFFCFFFF00B5072805D800F0CF
S1130B3081FA1304040B0D19061F172000BD0223AC
S1130B40174A116A0B4313620020F7E70223144A81
S1130B5091690B439361F7E70223114A118A0B430E
S1130B601382F1E702230E4A918A0B439382EBE747
S1130B7002230C4A11680B431360802311689943C4
S1130B80074B89B299841021D8680842FCD0916837
S1130B90D96251689962126892B29A84D4E7C046C5
S1130BA0000800404C0000207FB5C2221E21194BD2
S1130BB0D2009A60184A0024536801AD8B435360F5
S1130BC001232B70E0B22900144B013498471C2CEC
S1130BD0F8D100246B4601265C709E701C70684638
S1130BE00F4B98470F4B062098470F4B98470F4BD6
S1130BF029001C725C729C72DC72062320002B702C
S1130C000B4B6E606C702C726C7298472000094B11
S1130C1098477FBD0008004000400041590E000085
S1130C20ED0A0000290B0000450C00000004004000
S1130C30650C0000090D0000014B5878C00970478D
S1130C40000C00400823054A91690B43936101237A
S1130C50034A137011781942FCD170470004004014
S1130C60000C0040F8B50C784B782402060005000F
S1130C700443002B02D08023DB021C434B7A002B5D
S1130C8002D080231B031C434B68012B12D95D1E29
S1130C901D400222002D06D01D02802335439B02F5
S1130CA007E0013552009A42FBD380232D023543DD
S1130CB05B031C430B7A002B02D080239B031C4351
S1130CC00C4FB8470028FBD10B4B98470B4B1E70B9
S1130CD0B8470028FCD10A4B9D601D00B847002886
S1130CE0FCD180226B68520213401C436C60054B9C
S1130CF09847F8BD390C0000110A0000080C0040A8
S1130D00000C0040450A000070B50500094CA047DE
S1130D100028FBD1084B9847084B1D70A0470028BA
S1130D20FCD18023064A5B0251680B435360054B98
S1130D30984770BD390C0000110A0000040C0040F3
S1130D40000C0040450A0000F7B50700184EB047F4
S1130D500028FBD1174B9847174B1F700193B047DE
S1130D600028FCD1154D164B6868C004C00E984786
S1130D700400019B1F706B68DB02DB0F0193114BB6
S1130D801F70B0470028FCD1AD680F4B9847019BFA
S1130D902D022D0C002B08D1012D04D9200029008F
S1130DA00A4B984704002000FEBD0135EC40FAE7E9
S1130DB0390C0000110A0000040C0040000C004033
S1130DC0750A0000080C0040450A000049100000A4
S1130DD010B50400064B9847064B074A1C70802345
S1130DE05188DB010B435380044B984710BDC04628
S1130DF0110A0000020C0040000C0040450A0000EB
S1130E0010B504000E4B98470E4B0F4A1C700F4B45
S1130E100F4C588859880005114059805988000F93
S1130E202140598011008022D2015C881442FCD1F7
S1130E305A8800020A4002435A80064B984710BD64
S1130E40110A0000020C0040FFF0FFFF000C0040FC
S1130E50FFBFFFFF450A000010B50C78034B2402C6
S1130E6004439847024BA4B25C8010BD010E0000FD
S1130E70000C004010B50400064B9847064B1C704C
S1130E80064B5C88064B2405240F98472000054B2D
S1130E90984710BD110A0000020C0040000C0040ED
S1130EA0450A0000490D0000D37830B5002B35D138
S1130EB01478802C03D0802324065B02234302256C
S1130EC05478AC4306D19478002C24D18024A40215
S1130ED0234341605478013C012C01D8124C234037
S1130EE0A0248DB2E4052C431C438462D0240D0C51
S1130EF024062C431C438462D478002C0AD15B035F
S1130F0003D59378012B0CD181615378013B012BDC
S1130F1000D8816030BDC024E402D9E741600023D9
S1130F20DEE74161F1E7C046FFFFFBFF10B50300B8
S1130F300A004409C1090020814202D10449E001A8
S1130F4040181F210B401E399940024B984710BD91
S1130F5000440041A90E00007047000010B5054B85
S1130F609847054B9847054B9847054B9847054BC1
S1130F70984710BDA90B0000B9090000590F0000E3
S1130F80590F0000590F0000FEE7000011481249F4
S1130F9070B5884204D00023104CCA18A24213D35F
S1130FA000210F4B0F4A934212D3FF210E4B0F4ADD
S1130FB08B43936080230E4A51680B4353600D4B5F
S1130FC098470D4B9847FEE7C55804331560E4E78E
S1130FD002C3E8E7E0110000000000200C0000203C
S1130FE00C000020E80000200000000000ED00E0FC
S1130FF00040004161110000FD0F000070B5094B75
S113100098478025084B802498472D02E401074B1C
S11310101A6A2A4204D1DC616420054B9847F6E73A
S11310209C61F4E75D0F0000E90500000044004105
S11310302909000002B4714649084900095C4900C5
S11310408E4402BC7047C046002243088B4274D3CE
S113105003098B425FD3030A8B4244D3030B8B42B5
S113106028D3030C8B420DD3FF22090212BA030CBE
S11310708B4202D31212090265D0030B8B4219D39F
S113108000E0090AC30B8B4201D3CB03C01A5241BF
S1131090830B8B4201D38B03C01A5241430B8B4207
S11310A001D34B03C01A5241030B8B4201D30B03F0
S11310B0C01A5241C30A8B4201D3CB02C01A524117
S11310C0830A8B4201D38B02C01A5241430A8B42DA
S11310D001D34B02C01A5241030A8B4201D30B02C3
S11310E0C01A5241CDD2C3098B4201D3CB01C01ADD
S11310F0524183098B4201D38B01C01A52414309E7
S11311008B4201D34B01C01A524103098B4201D3D4
S11311100B01C01A5241C3088B4201D3CB00C01A41
S1131120524183088B4201D38B00C01A52414308B9
S11311308B4201D34B00C01A5241411A00D20146DE
S1131140524110467047FFE701B5002000F006F851
S113115002BDC0460029F7D076E770477047C04605
S113116070B500260C4D0D4C641BA410A64209D189
S1131170002600F025F80A4D0A4C641BA410A64270
S113118005D170BDB300EB5898470136EEE7B300C4
S1131190EB5898470136F2E7CC110000CC1100005F
S11311A0CC110000D011000000080042000C0042E5
S11311B0001000420014004200180042001C0042CB
S11311C0F8B5C046F8BC08BC9E467047CD00000088
S11311D0F8B5C046F8BC08BC9E467047A5000000A0
S10F11E0401F0000080000000100000097
S9030F8D60
